{
  "contractName": "BankTransactionHistory",
  "abi": [
    {
      "anonymous": false,
      "inputs": [
        {
          "indexed": true,
          "internalType": "string",
          "name": "hGroupId",
          "type": "string"
        },
        {
          "indexed": false,
          "internalType": "string",
          "name": "groupId",
          "type": "string"
        },
        {
          "indexed": false,
          "internalType": "uint256",
          "name": "balance",
          "type": "uint256"
        }
      ],
      "name": "RetrieveBalance",
      "type": "event"
    },
    {
      "anonymous": false,
      "inputs": [
        {
          "indexed": true,
          "internalType": "string",
          "name": "hGroupId",
          "type": "string"
        },
        {
          "indexed": false,
          "internalType": "string",
          "name": "groupId",
          "type": "string"
        },
        {
          "indexed": false,
          "internalType": "uint256",
          "name": "transactionIndex",
          "type": "uint256"
        },
        {
          "indexed": false,
          "internalType": "bool",
          "name": "isDeposit",
          "type": "bool"
        },
        {
          "indexed": false,
          "internalType": "uint256",
          "name": "amount",
          "type": "uint256"
        },
        {
          "indexed": false,
          "internalType": "string",
          "name": "counterparty",
          "type": "string"
        },
        {
          "indexed": false,
          "internalType": "string",
          "name": "description",
          "type": "string"
        },
        {
          "indexed": false,
          "internalType": "uint256",
          "name": "timestamp",
          "type": "uint256"
        },
        {
          "indexed": false,
          "internalType": "string",
          "name": "receiptDetails",
          "type": "string"
        }
      ],
      "name": "TransactionCreated",
      "type": "event"
    },
    {
      "inputs": [
        {
          "internalType": "bytes32",
          "name": "",
          "type": "bytes32"
        }
      ],
      "name": "groups",
      "outputs": [
        {
          "internalType": "string",
          "name": "id",
          "type": "string"
        },
        {
          "internalType": "string",
          "name": "name",
          "type": "string"
        },
        {
          "internalType": "uint256",
          "name": "balance",
          "type": "uint256"
        }
      ],
      "stateMutability": "view",
      "type": "function",
      "constant": true
    },
    {
      "inputs": [
        {
          "internalType": "bytes32",
          "name": "",
          "type": "bytes32"
        },
        {
          "internalType": "uint256",
          "name": "",
          "type": "uint256"
        }
      ],
      "name": "transactions",
      "outputs": [
        {
          "internalType": "uint256",
          "name": "amount",
          "type": "uint256"
        },
        {
          "internalType": "bool",
          "name": "isDeposit",
          "type": "bool"
        },
        {
          "internalType": "string",
          "name": "counterparty",
          "type": "string"
        },
        {
          "internalType": "string",
          "name": "description",
          "type": "string"
        },
        {
          "internalType": "uint256",
          "name": "timestamp",
          "type": "uint256"
        },
        {
          "internalType": "string",
          "name": "receiptDetails",
          "type": "string"
        }
      ],
      "stateMutability": "view",
      "type": "function",
      "constant": true
    },
    {
      "inputs": [
        {
          "internalType": "string",
          "name": "_groupId",
          "type": "string"
        },
        {
          "internalType": "string",
          "name": "_name",
          "type": "string"
        }
      ],
      "name": "createGroup",
      "outputs": [],
      "stateMutability": "nonpayable",
      "type": "function"
    },
    {
      "inputs": [
        {
          "internalType": "string",
          "name": "_groupId",
          "type": "string"
        },
        {
          "internalType": "uint256",
          "name": "_amount",
          "type": "uint256"
        },
        {
          "internalType": "string",
          "name": "_counterparty",
          "type": "string"
        },
        {
          "internalType": "string",
          "name": "_description",
          "type": "string"
        }
      ],
      "name": "recordDeposit",
      "outputs": [],
      "stateMutability": "nonpayable",
      "type": "function"
    },
    {
      "inputs": [
        {
          "internalType": "string",
          "name": "_groupId",
          "type": "string"
        },
        {
          "internalType": "uint256",
          "name": "_amount",
          "type": "uint256"
        },
        {
          "internalType": "string",
          "name": "_counterparty",
          "type": "string"
        },
        {
          "internalType": "string",
          "name": "_description",
          "type": "string"
        }
      ],
      "name": "recordWithdrawal",
      "outputs": [],
      "stateMutability": "nonpayable",
      "type": "function"
    },
    {
      "inputs": [
        {
          "internalType": "string",
          "name": "_groupId",
          "type": "string"
        },
        {
          "internalType": "uint256",
          "name": "_transactionIndex",
          "type": "uint256"
        },
        {
          "internalType": "string",
          "name": "_receiptDetails",
          "type": "string"
        }
      ],
      "name": "updateReceiptDetails",
      "outputs": [],
      "stateMutability": "nonpayable",
      "type": "function"
    }
  ],
  "bytecode": "0x608060405234801561001057600080fd5b50611125806100206000396000f3fe608060405234801561001057600080fd5b50600436106100625760003560e01c80630fb2d18c146100675780631e4a97dd146100955780635792d844146100aa578063a93c846f146100bd578063b8cdd7e5146100d0578063ef161bcb146100e3575b600080fd5b61007a610075366004610a56565b610105565b60405161008c96959493929190610ac8565b60405180910390f35b6100a86100a3366004610bc5565b6102f7565b005b6100a86100b8366004610c29565b6103f4565b6100a86100cb366004610c96565b610560565b6100a86100de366004610c96565b610773565b6100f66100f1366004610d28565b610924565b60405161008c93929190610d41565b6002602052816000526040600020818154811061012157600080fd5b600091825260209091206006909102018054600182015460028301805492955060ff90911693509061015290610d77565b80601f016020809104026020016040519081016040528092919081815260200182805461017e90610d77565b80156101cb5780601f106101a0576101008083540402835291602001916101cb565b820191906000526020600020905b8154815290600101906020018083116101ae57829003601f168201915b5050505050908060030180546101e090610d77565b80601f016020809104026020016040519081016040528092919081815260200182805461020c90610d77565b80156102595780601f1061022e57610100808354040283529160200191610259565b820191906000526020600020905b81548152906001019060200180831161023c57829003601f168201915b50505050509080600401549080600501805461027490610d77565b80601f01602080910402602001604051908101604052809291908181526020018280546102a090610d77565b80156102ed5780601f106102c2576101008083540402835291602001916102ed565b820191906000526020600020905b8154815290600101906020018083116102d057829003601f168201915b5050505050905086565b60008260405160200161030a9190610db1565b60408051601f1981840301815291815281516020928301206000818152600190935291205490915060ff161561037f5760405162461bcd60e51b815260206004820152601560248201527433b937bab81030b63932b0b23c9032bc34b9ba399760591b60448201526064015b60405180910390fd5b60408051606081018252848152602080820185905260008284018190528481529081905291909120815181906103b59082610e1c565b50602082015160018201906103ca9082610e1c565b506040918201516002909101556000918252600160208190529120805460ff191690911790555050565b6000836040516020016104079190610db1565b60408051601f1981840301815291815281516020928301206000818152600190935291205490915060ff1661044e5760405162461bcd60e51b815260040161037690610edc565b60008181526002602052604090205483106104ab5760405162461bcd60e51b815260206004820152601b60248201527f5472616e73616374696f6e20646f6573206e6f742065786973742e00000000006044820152606401610376565b60008181526002602052604081208054859081106104cb576104cb610f0b565b90600052602060002090600602019050828160050190816104ec9190610e1c565b50846040516104fb9190610db1565b6040519081900381206001830154835491927f99975fe158050c0ed911127c03902d0165abc80e8c9c804e17dc25f23503b95b92610551928a928a9260ff9092169190600289019060038a019042908d90610f9e565b60405180910390a25050505050565b6000846040516020016105739190610db1565b60408051601f1981840301815291815281516020928301206000818152600190935291205490915060ff166105ba5760405162461bcd60e51b815260040161037690610edc565b600081815260208190526040812060020180548692906105db90849061102d565b90915550506000818152600260208181526040808420815160c0810183528981528084018681528184018a8152606083018a9052426080840152845180870190955287855260a08301949094528254600180820185559388529490962081516006909502019384559451908301805460ff19169115159190911790555190918201906106679082610e1c565b506060820151600382019061067c9082610e1c565b506080820151600482015560a0820151600582019061069b9082610e1c565b505050846040516106ac9190610db1565b60408051918290039091206000838152600260205291909120547f99975fe158050c0ed911127c03902d0165abc80e8c9c804e17dc25f23503b95b9087906106f69060019061102d565b60008888884260405161070f9796959493929190611046565b60405180910390a2846040516107259190610db1565b60405180910390207febf33a425eb9d661484d26785641373b95593cf154a63d91ce8f6c075951c06b86600080858152602001908152602001600020600201546040516105519291906110ba565b6000846040516020016107869190610db1565b60408051601f1981840301815291815281516020928301206000818152600190935291205490915060ff166107cd5760405162461bcd60e51b815260040161037690610edc565b600081815260208190526040812060020180548692906107ee9084906110dc565b90915550506000818152600260208181526040808420815160c08101835289815260018185018181528285018b8152606084018b9052426080850152855180880190965288865260a0840195909552835480830185559388529490962081516006909302019182559251948101805460ff1916951515959095179094555190929182019061087c9082610e1c565b50606082015160038201906108919082610e1c565b506080820151600482015560a082015160058201906108b09082610e1c565b505050846040516108c19190610db1565b60408051918290039091206000838152600260205291909120547f99975fe158050c0ed911127c03902d0165abc80e8c9c804e17dc25f23503b95b90879061090b9060019061102d565b60018888884260405161070f9796959493929190611046565b60006020819052908152604090208054819061093f90610d77565b80601f016020809104026020016040519081016040528092919081815260200182805461096b90610d77565b80156109b85780601f1061098d576101008083540402835291602001916109b8565b820191906000526020600020905b81548152906001019060200180831161099b57829003601f168201915b5050505050908060010180546109cd90610d77565b80601f01602080910402602001604051908101604052809291908181526020018280546109f990610d77565b8015610a465780601f10610a1b57610100808354040283529160200191610a46565b820191906000526020600020905b815481529060010190602001808311610a2957829003601f168201915b5050505050908060020154905083565b60008060408385031215610a6957600080fd5b50508035926020909101359150565b60005b83811015610a93578181015183820152602001610a7b565b50506000910152565b60008151808452610ab4816020860160208601610a78565b601f01601f19169290920160200192915050565b868152851515602082015260c060408201526000610ae960c0830187610a9c565b8281036060840152610afb8187610a9c565b905084608084015282810360a0840152610b158185610a9c565b9998505050505050505050565b634e487b7160e01b600052604160045260246000fd5b600082601f830112610b4957600080fd5b813567ffffffffffffffff80821115610b6457610b64610b22565b604051601f8301601f19908116603f01168101908282118183101715610b8c57610b8c610b22565b81604052838152866020858801011115610ba557600080fd5b836020870160208301376000602085830101528094505050505092915050565b60008060408385031215610bd857600080fd5b823567ffffffffffffffff80821115610bf057600080fd5b610bfc86838701610b38565b93506020850135915080821115610c1257600080fd5b50610c1f85828601610b38565b9150509250929050565b600080600060608486031215610c3e57600080fd5b833567ffffffffffffffff80821115610c5657600080fd5b610c6287838801610b38565b9450602086013593506040860135915080821115610c7f57600080fd5b50610c8c86828701610b38565b9150509250925092565b60008060008060808587031215610cac57600080fd5b843567ffffffffffffffff80821115610cc457600080fd5b610cd088838901610b38565b9550602087013594506040870135915080821115610ced57600080fd5b610cf988838901610b38565b93506060870135915080821115610d0f57600080fd5b50610d1c87828801610b38565b91505092959194509250565b600060208284031215610d3a57600080fd5b5035919050565b606081526000610d546060830186610a9c565b8281036020840152610d668186610a9c565b915050826040830152949350505050565b600181811c90821680610d8b57607f821691505b602082108103610dab57634e487b7160e01b600052602260045260246000fd5b50919050565b60008251610dc3818460208701610a78565b9190910192915050565b601f821115610e1757600081815260208120601f850160051c81016020861015610df45750805b601f850160051c820191505b81811015610e1357828155600101610e00565b5050505b505050565b815167ffffffffffffffff811115610e3657610e36610b22565b610e4a81610e448454610d77565b84610dcd565b602080601f831160018114610e7f5760008415610e675750858301515b600019600386901b1c1916600185901b178555610e13565b600085815260208120601f198616915b82811015610eae57888601518255948401946001909101908401610e8f565b5085821015610ecc5787850151600019600388901b60f8161c191681555b5050505050600190811b01905550565b60208082526015908201527433b937bab8103237b2b9903737ba1032bc34b9ba1760591b604082015260600190565b634e487b7160e01b600052603260045260246000fd5b60008154610f2e81610d77565b808552602060018381168015610f4b5760018114610f6557610f93565b60ff1985168884015283151560051b880183019550610f93565b866000528260002060005b85811015610f8b5781548a8201860152908301908401610f70565b890184019650505b505050505092915050565b6000610100808352610fb28184018c610a9c565b905089602084015288151560408401528760608401528281036080840152610fda8188610f21565b905082810360a0840152610fee8187610f21565b90508460c084015282810360e08401526110088185610a9c565b9b9a5050505050505050505050565b634e487b7160e01b600052601160045260246000fd5b8181038181111561104057611040611017565b92915050565b600061010080835261105a8184018b610a9c565b9050886020840152871515604084015286606084015282810360808401526110828187610a9c565b905082810360a08401526110968186610a9c565b60c0840194909452505080820360e090910152600081526020019695505050505050565b6040815260006110cd6040830185610a9c565b90508260208301529392505050565b808201808211156110405761104061101756fea2646970667358221220a106a3cffec6fe42ba6bd9de42566146958c0668db3aee17a108dc4245fe12ae64736f6c63430008120033",
  "immutableReferences": {},
  "source": "// SPDX-License-Identifier: MIT\npragma solidity 0.8.18;\n\ncontract BankTransactionHistory{\n    event TransactionCreated(string indexed hGroupId, string groupId, uint256 transactionIndex, bool isDeposit, uint256 amount, string counterparty, string description, uint256 timestamp, string receiptDetails);\n    event RetrieveBalance(string indexed hGroupId, string groupId, uint256 balance);\n\n    struct Transaction {\n        uint256 amount;\n        bool isDeposit; // true for deposit(+), false for withdrawal(-)\n        string counterparty;\n        string description;\n        uint256 timestamp;\n        string receiptDetails;\n    }\n\n    // \n    struct Group {\n        string id;\n        string name;\n        uint256 balance; //    \n    }\n\n    mapping(bytes32 => Group) public groups;\n    mapping(bytes32 => bool) private groupExists;\n    mapping(bytes32 => Transaction[]) public transactions; //   ID   \n\n\n    //1:  \n    function createGroup(string memory _groupId, string memory _name) public {\n        bytes32 uuidHash = keccak256(abi.encodePacked(_groupId));\n        require(!groupExists[uuidHash], \"group already exists.\"); //  \n        groups[uuidHash] = Group({\n            id: _groupId,\n            name: _name,\n            balance:0\n        });\n        groupExists[uuidHash]=true;\n    }\n\n    //2:      ,   (   )\n    //  \n    function recordDeposit(string memory _groupId, uint256 _amount, string memory _counterparty, string memory _description) public {\n        bytes32 uuidHash = keccak256(abi.encodePacked(_groupId));\n        require(groupExists[uuidHash], \"group does not exist.\");\n\n        groups[uuidHash].balance += _amount;\n        transactions[uuidHash].push(Transaction({\n            amount: _amount,\n            isDeposit: true,\n            counterparty: _counterparty,\n            description: _description,\n            timestamp: block.timestamp,\n            receiptDetails:\"\"\n        }));\n\n        emit TransactionCreated(_groupId, _groupId, transactions[uuidHash].length - 1, true, _amount, _counterparty, _description, block.timestamp, \"\");\n        emit RetrieveBalance(_groupId, _groupId, groups[uuidHash].balance);\n    }\n\n    //  \n    function recordWithdrawal(string memory _groupId, uint256 _amount, string memory _counterparty, string memory _description) public {\n        bytes32 uuidHash = keccak256(abi.encodePacked(_groupId));\n        require(groupExists[uuidHash], \"group does not exist.\");\n\n        groups[uuidHash].balance -= _amount;\n        transactions[uuidHash].push(Transaction({\n            amount: _amount,\n            isDeposit: false,\n            counterparty: _counterparty,\n            description: _description,\n            timestamp: block.timestamp,\n            receiptDetails:\"\"\n        }));\n\n        emit TransactionCreated(_groupId, _groupId, transactions[uuidHash].length - 1, false, _amount, _counterparty, _description, block.timestamp, \"\");\n        emit RetrieveBalance(_groupId, _groupId, groups[uuidHash].balance);\n    }\n\n    //    \n    function updateReceiptDetails(string memory _groupId, uint256 _transactionIndex, string memory _receiptDetails) public {\n        bytes32 uuidHash = keccak256(abi.encodePacked(_groupId));\n        require(groupExists[uuidHash], \"group does not exist.\");\n        require(_transactionIndex < transactions[uuidHash].length, \"Transaction does not exist.\"); //    \n\n        Transaction storage transactionToUpdate = transactions[uuidHash][_transactionIndex];\n        transactionToUpdate.receiptDetails = _receiptDetails;\n\n        emit TransactionCreated(_groupId, _groupId, _transactionIndex, transactionToUpdate.isDeposit, transactionToUpdate.amount, transactionToUpdate.counterparty, transactionToUpdate.description, block.timestamp, _receiptDetails);\n    }\n\n}",
  "sourcePath": "/Users/jayde/Project/Pumble_Blockchain/contracts/BankTransactionHistory.sol",
  "compiler": {
    "name": "solc",
    "version": "0.8.18+commit.87f61d96.Emscripten.clang"
  },
  "schemaVersion": "3.4.16",
  "updatedAt": "2024-06-20T13:27:16.078Z",
  "networkType": "ethereum",
  "devdoc": {
    "kind": "dev",
    "methods": {},
    "version": 1
  },
  "userdoc": {
    "kind": "user",
    "methods": {},
    "version": 1
  }
}