{
  "contractName": "BankTransactionHistory",
  "abi": [
    {
      "anonymous": false,
      "inputs": [
        {
          "indexed": true,
          "internalType": "string",
          "name": "hGroupId",
          "type": "string"
        },
        {
          "indexed": true,
          "internalType": "string",
          "name": "category",
          "type": "string"
        },
        {
          "indexed": false,
          "internalType": "string",
          "name": "groupId",
          "type": "string"
        },
        {
          "indexed": false,
          "internalType": "uint256",
          "name": "balance",
          "type": "uint256"
        }
      ],
      "name": "RetrieveBalance",
      "type": "event"
    },
    {
      "anonymous": false,
      "inputs": [
        {
          "indexed": true,
          "internalType": "string",
          "name": "hGroupId",
          "type": "string"
        },
        {
          "indexed": true,
          "internalType": "string",
          "name": "category",
          "type": "string"
        },
        {
          "indexed": false,
          "internalType": "string",
          "name": "groupId",
          "type": "string"
        },
        {
          "indexed": false,
          "internalType": "uint256",
          "name": "transactionIndex",
          "type": "uint256"
        },
        {
          "indexed": false,
          "internalType": "bool",
          "name": "isDeposit",
          "type": "bool"
        },
        {
          "indexed": false,
          "internalType": "uint256",
          "name": "amount",
          "type": "uint256"
        },
        {
          "indexed": false,
          "internalType": "string",
          "name": "counterparty",
          "type": "string"
        },
        {
          "indexed": false,
          "internalType": "string",
          "name": "description",
          "type": "string"
        },
        {
          "indexed": false,
          "internalType": "uint256",
          "name": "timestamp",
          "type": "uint256"
        },
        {
          "indexed": false,
          "internalType": "string",
          "name": "receiptDetails",
          "type": "string"
        }
      ],
      "name": "TransactionCreated",
      "type": "event"
    },
    {
      "inputs": [
        {
          "internalType": "bytes32",
          "name": "",
          "type": "bytes32"
        }
      ],
      "name": "groups",
      "outputs": [
        {
          "internalType": "string",
          "name": "id",
          "type": "string"
        },
        {
          "internalType": "string",
          "name": "name",
          "type": "string"
        },
        {
          "internalType": "uint256",
          "name": "balance",
          "type": "uint256"
        }
      ],
      "stateMutability": "view",
      "type": "function",
      "constant": true
    },
    {
      "inputs": [
        {
          "internalType": "bytes32",
          "name": "",
          "type": "bytes32"
        },
        {
          "internalType": "uint256",
          "name": "",
          "type": "uint256"
        }
      ],
      "name": "transactions",
      "outputs": [
        {
          "internalType": "uint256",
          "name": "amount",
          "type": "uint256"
        },
        {
          "internalType": "bool",
          "name": "isDeposit",
          "type": "bool"
        },
        {
          "internalType": "string",
          "name": "counterparty",
          "type": "string"
        },
        {
          "internalType": "string",
          "name": "description",
          "type": "string"
        },
        {
          "internalType": "uint256",
          "name": "timestamp",
          "type": "uint256"
        },
        {
          "internalType": "string",
          "name": "receiptDetails",
          "type": "string"
        }
      ],
      "stateMutability": "view",
      "type": "function",
      "constant": true
    },
    {
      "inputs": [
        {
          "internalType": "string",
          "name": "_groupId",
          "type": "string"
        },
        {
          "internalType": "string",
          "name": "_name",
          "type": "string"
        }
      ],
      "name": "createGroup",
      "outputs": [],
      "stateMutability": "nonpayable",
      "type": "function"
    },
    {
      "inputs": [
        {
          "internalType": "string",
          "name": "_groupId",
          "type": "string"
        },
        {
          "internalType": "uint256",
          "name": "_amount",
          "type": "uint256"
        },
        {
          "internalType": "string",
          "name": "_counterparty",
          "type": "string"
        },
        {
          "internalType": "string",
          "name": "_description",
          "type": "string"
        }
      ],
      "name": "recordDeposit",
      "outputs": [],
      "stateMutability": "nonpayable",
      "type": "function"
    },
    {
      "inputs": [
        {
          "internalType": "string",
          "name": "_groupId",
          "type": "string"
        },
        {
          "internalType": "uint256",
          "name": "_amount",
          "type": "uint256"
        },
        {
          "internalType": "string",
          "name": "_counterparty",
          "type": "string"
        },
        {
          "internalType": "string",
          "name": "_description",
          "type": "string"
        }
      ],
      "name": "recordWithdrawal",
      "outputs": [],
      "stateMutability": "nonpayable",
      "type": "function"
    },
    {
      "inputs": [
        {
          "internalType": "string",
          "name": "_groupId",
          "type": "string"
        },
        {
          "internalType": "uint256",
          "name": "_transactionIndex",
          "type": "uint256"
        },
        {
          "internalType": "string",
          "name": "_receiptDetails",
          "type": "string"
        }
      ],
      "name": "updateReceiptDetails",
      "outputs": [],
      "stateMutability": "nonpayable",
      "type": "function"
    }
  ],
  "bytecode": "0x608060405234801561001057600080fd5b5061118f806100206000396000f3fe608060405234801561001057600080fd5b50600436106100625760003560e01c80630fb2d18c146100675780631e4a97dd146100955780635792d844146100aa578063a93c846f146100bd578063b8cdd7e5146100d0578063ef161bcb146100e3575b600080fd5b61007a610075366004610ac0565b610105565b60405161008c96959493929190610b32565b60405180910390f35b6100a86100a3366004610c2f565b6102f7565b005b6100a86100b8366004610c93565b6103f4565b6100a86100cb366004610d00565b61057a565b6100a86100de366004610d00565b6107c2565b6100f66100f1366004610d92565b61098e565b60405161008c93929190610dab565b6002602052816000526040600020818154811061012157600080fd5b600091825260209091206006909102018054600182015460028301805492955060ff90911693509061015290610de1565b80601f016020809104026020016040519081016040528092919081815260200182805461017e90610de1565b80156101cb5780601f106101a0576101008083540402835291602001916101cb565b820191906000526020600020905b8154815290600101906020018083116101ae57829003601f168201915b5050505050908060030180546101e090610de1565b80601f016020809104026020016040519081016040528092919081815260200182805461020c90610de1565b80156102595780601f1061022e57610100808354040283529160200191610259565b820191906000526020600020905b81548152906001019060200180831161023c57829003601f168201915b50505050509080600401549080600501805461027490610de1565b80601f01602080910402602001604051908101604052809291908181526020018280546102a090610de1565b80156102ed5780601f106102c2576101008083540402835291602001916102ed565b820191906000526020600020905b8154815290600101906020018083116102d057829003601f168201915b5050505050905086565b60008260405160200161030a9190610e1b565b60408051601f1981840301815291815281516020928301206000818152600190935291205490915060ff161561037f5760405162461bcd60e51b815260206004820152601560248201527433b937bab81030b63932b0b23c9032bc34b9ba399760591b60448201526064015b60405180910390fd5b60408051606081018252848152602080820185905260008284018190528481529081905291909120815181906103b59082610e86565b50602082015160018201906103ca9082610e86565b506040918201516002909101556000918252600160208190529120805460ff191690911790555050565b6000836040516020016104079190610e1b565b60408051601f1981840301815291815281516020928301206000818152600190935291205490915060ff1661044e5760405162461bcd60e51b815260040161037690610f46565b60008181526002602052604090205483106104ab5760405162461bcd60e51b815260206004820152601b60248201527f5472616e73616374696f6e20646f6573206e6f742065786973742e00000000006044820152606401610376565b60008181526002602052604081208054859081106104cb576104cb610f75565b90600052602060002090600602019050828160050190816104ec9190610e86565b50604051653632b233b2b960d11b81526006016040518091039020856040516105159190610e1b565b6040519081900381206001840154845491927f93b1d5e837b875d182d3e5b02fd7a8c2a5e2265d25bda8a5cd148cf32f055e709261056b928b928b9260ff909216919060028a019060038b019042908e90611008565b60405180910390a35050505050565b60008460405160200161058d9190610e1b565b60408051601f1981840301815291815281516020928301206000818152600190935291205490915060ff166105d45760405162461bcd60e51b815260040161037690610f46565b600081815260208190526040812060020180548692906105f5908490611097565b90915550506000818152600260208181526040808420815160c0810183528981528084018681528184018a8152606083018a9052426080840152845180870190955287855260a08301949094528254600180820185559388529490962081516006909502019384559451908301805460ff19169115159190911790555190918201906106819082610e86565b50606082015160038201906106969082610e86565b506080820151600482015560a082015160058201906106b59082610e86565b5050604051653632b233b2b960d11b815260060190506040518091039020856040516106e19190610e1b565b60408051918290039091206000848152600260205291909120547f93b1d5e837b875d182d3e5b02fd7a8c2a5e2265d25bda8a5cd148cf32f055e7090889061072b90600190611097565b60008989894260405161074497969594939291906110b0565b60405180910390a3604051653632b233b2b960d11b81526006016040518091039020856040516107749190610e1b565b60405180910390207fe369602aae150aa335c47c639a2abc821c6f79cf0d3b38eae4db76c29921474e876000808681526020019081526020016000206002015460405161056b929190611124565b6000846040516020016107d59190610e1b565b60408051601f1981840301815291815281516020928301206000818152600190935291205490915060ff1661081c5760405162461bcd60e51b815260040161037690610f46565b6000818152602081905260408120600201805486929061083d908490611146565b90915550506000818152600260208181526040808420815160c08101835289815260018185018181528285018b8152606084018b9052426080850152855180880190965288865260a0840195909552835480830185559388529490962081516006909302019182559251948101805460ff191695151595909517909455519092918201906108cb9082610e86565b50606082015160038201906108e09082610e86565b506080820151600482015560a082015160058201906108ff9082610e86565b5050604051653632b233b2b960d11b8152600601905060405180910390208560405161092b9190610e1b565b60408051918290039091206000848152600260205291909120547f93b1d5e837b875d182d3e5b02fd7a8c2a5e2265d25bda8a5cd148cf32f055e7090889061097590600190611097565b60018989894260405161074497969594939291906110b0565b6000602081905290815260409020805481906109a990610de1565b80601f01602080910402602001604051908101604052809291908181526020018280546109d590610de1565b8015610a225780601f106109f757610100808354040283529160200191610a22565b820191906000526020600020905b815481529060010190602001808311610a0557829003601f168201915b505050505090806001018054610a3790610de1565b80601f0160208091040260200160405190810160405280929190818152602001828054610a6390610de1565b8015610ab05780601f10610a8557610100808354040283529160200191610ab0565b820191906000526020600020905b815481529060010190602001808311610a9357829003601f168201915b5050505050908060020154905083565b60008060408385031215610ad357600080fd5b50508035926020909101359150565b60005b83811015610afd578181015183820152602001610ae5565b50506000910152565b60008151808452610b1e816020860160208601610ae2565b601f01601f19169290920160200192915050565b868152851515602082015260c060408201526000610b5360c0830187610b06565b8281036060840152610b658187610b06565b905084608084015282810360a0840152610b7f8185610b06565b9998505050505050505050565b634e487b7160e01b600052604160045260246000fd5b600082601f830112610bb357600080fd5b813567ffffffffffffffff80821115610bce57610bce610b8c565b604051601f8301601f19908116603f01168101908282118183101715610bf657610bf6610b8c565b81604052838152866020858801011115610c0f57600080fd5b836020870160208301376000602085830101528094505050505092915050565b60008060408385031215610c4257600080fd5b823567ffffffffffffffff80821115610c5a57600080fd5b610c6686838701610ba2565b93506020850135915080821115610c7c57600080fd5b50610c8985828601610ba2565b9150509250929050565b600080600060608486031215610ca857600080fd5b833567ffffffffffffffff80821115610cc057600080fd5b610ccc87838801610ba2565b9450602086013593506040860135915080821115610ce957600080fd5b50610cf686828701610ba2565b9150509250925092565b60008060008060808587031215610d1657600080fd5b843567ffffffffffffffff80821115610d2e57600080fd5b610d3a88838901610ba2565b9550602087013594506040870135915080821115610d5757600080fd5b610d6388838901610ba2565b93506060870135915080821115610d7957600080fd5b50610d8687828801610ba2565b91505092959194509250565b600060208284031215610da457600080fd5b5035919050565b606081526000610dbe6060830186610b06565b8281036020840152610dd08186610b06565b915050826040830152949350505050565b600181811c90821680610df557607f821691505b602082108103610e1557634e487b7160e01b600052602260045260246000fd5b50919050565b60008251610e2d818460208701610ae2565b9190910192915050565b601f821115610e8157600081815260208120601f850160051c81016020861015610e5e5750805b601f850160051c820191505b81811015610e7d57828155600101610e6a565b5050505b505050565b815167ffffffffffffffff811115610ea057610ea0610b8c565b610eb481610eae8454610de1565b84610e37565b602080601f831160018114610ee95760008415610ed15750858301515b600019600386901b1c1916600185901b178555610e7d565b600085815260208120601f198616915b82811015610f1857888601518255948401946001909101908401610ef9565b5085821015610f365787850151600019600388901b60f8161c191681555b5050505050600190811b01905550565b60208082526015908201527433b937bab8103237b2b9903737ba1032bc34b9ba1760591b604082015260600190565b634e487b7160e01b600052603260045260246000fd5b60008154610f9881610de1565b808552602060018381168015610fb55760018114610fcf57610ffd565b60ff1985168884015283151560051b880183019550610ffd565b866000528260002060005b85811015610ff55781548a8201860152908301908401610fda565b890184019650505b505050505092915050565b600061010080835261101c8184018c610b06565b9050896020840152881515604084015287606084015282810360808401526110448188610f8b565b905082810360a08401526110588187610f8b565b90508460c084015282810360e08401526110728185610b06565b9b9a5050505050505050505050565b634e487b7160e01b600052601160045260246000fd5b818103818111156110aa576110aa611081565b92915050565b60006101008083526110c48184018b610b06565b9050886020840152871515604084015286606084015282810360808401526110ec8187610b06565b905082810360a08401526111008186610b06565b60c0840194909452505080820360e090910152600081526020019695505050505050565b6040815260006111376040830185610b06565b90508260208301529392505050565b808201808211156110aa576110aa61108156fea26469706673582212206e0e82041c6218de037cdf294ee0591ed44ecec0d0caa380a8da9cc3d4f3e90964736f6c63430008120033",
  "immutableReferences": {},
  "source": "// SPDX-License-Identifier: MIT\npragma solidity 0.8.18;\n\ncontract BankTransactionHistory{\n    event TransactionCreated(string indexed hGroupId, string indexed category, string groupId, uint256 transactionIndex, bool isDeposit, uint256 amount, string counterparty, string description, uint256 timestamp, string receiptDetails);\n    event RetrieveBalance(string indexed hGroupId, string indexed category, string groupId, uint256 balance);\n\n    struct Transaction {\n        uint256 amount;\n        bool isDeposit; // true for deposit(+), false for withdrawal(-)\n        string counterparty;\n        string description;\n        uint256 timestamp;\n        string receiptDetails;\n    }\n\n    // \n    struct Group {\n        string id;\n        string name;\n        uint256 balance; //    \n    }\n\n    mapping(bytes32 => Group) public groups;\n    mapping(bytes32 => bool) private groupExists;\n    mapping(bytes32 => Transaction[]) public transactions; //   ID   \n\n\n    //1:  \n    function createGroup(string memory _groupId, string memory _name) public {\n        bytes32 uuidHash = keccak256(abi.encodePacked(_groupId));\n        require(!groupExists[uuidHash], \"group already exists.\"); //  \n        groups[uuidHash] = Group({\n            id: _groupId,\n            name: _name,\n            balance:0\n        });\n        groupExists[uuidHash]=true;\n    }\n\n    //2:      ,   (   )\n    //  \n    function recordDeposit(string memory _groupId, uint256 _amount, string memory _counterparty, string memory _description) public {\n        bytes32 uuidHash = keccak256(abi.encodePacked(_groupId));\n        require(groupExists[uuidHash], \"group does not exist.\");\n\n        groups[uuidHash].balance += _amount;\n        transactions[uuidHash].push(Transaction({\n            amount: _amount,\n            isDeposit: true,\n            counterparty: _counterparty,\n            description: _description,\n            timestamp: block.timestamp,\n            receiptDetails:\"\"\n        }));\n\n        emit TransactionCreated(_groupId, \"ledger\", _groupId, transactions[uuidHash].length - 1, true, _amount, _counterparty, _description, block.timestamp, \"\");\n        emit RetrieveBalance(_groupId, \"ledger\", _groupId, groups[uuidHash].balance);\n    }\n\n    //  \n    function recordWithdrawal(string memory _groupId, uint256 _amount, string memory _counterparty, string memory _description) public {\n        bytes32 uuidHash = keccak256(abi.encodePacked(_groupId));\n        require(groupExists[uuidHash], \"group does not exist.\");\n\n        groups[uuidHash].balance -= _amount;\n        transactions[uuidHash].push(Transaction({\n            amount: _amount,\n            isDeposit: false,\n            counterparty: _counterparty,\n            description: _description,\n            timestamp: block.timestamp,\n            receiptDetails:\"\"\n        }));\n\n        emit TransactionCreated(_groupId, \"ledger\", _groupId, transactions[uuidHash].length - 1, false, _amount, _counterparty, _description, block.timestamp, \"\");\n        emit RetrieveBalance(_groupId, \"ledger\", _groupId, groups[uuidHash].balance);\n    }\n\n    //    \n    function updateReceiptDetails(string memory _groupId, uint256 _transactionIndex, string memory _receiptDetails) public {\n        bytes32 uuidHash = keccak256(abi.encodePacked(_groupId));\n        require(groupExists[uuidHash], \"group does not exist.\");\n        require(_transactionIndex < transactions[uuidHash].length, \"Transaction does not exist.\"); //    \n\n        Transaction storage transactionToUpdate = transactions[uuidHash][_transactionIndex];\n        transactionToUpdate.receiptDetails = _receiptDetails;\n\n        emit TransactionCreated(_groupId, \"ledger\", _groupId, _transactionIndex, transactionToUpdate.isDeposit, transactionToUpdate.amount, transactionToUpdate.counterparty, transactionToUpdate.description, block.timestamp, _receiptDetails);\n    }\n\n}",
  "sourcePath": "/Users/jayde/Project/Pumble_Blockchain/contracts/BankTransactionHistory.sol",
  "compiler": {
    "name": "solc",
    "version": "0.8.18+commit.87f61d96.Emscripten.clang"
  },
  "schemaVersion": "3.4.16",
  "updatedAt": "2024-11-05T08:42:29.778Z",
  "networkType": "ethereum",
  "devdoc": {
    "kind": "dev",
    "methods": {},
    "version": 1
  },
  "userdoc": {
    "kind": "user",
    "methods": {},
    "version": 1
  }
}